{
  "contractName": "MedicoContract",
  "abi": [
    {
      "anonymous": false,
      "inputs": [
        {
          "indexed": false,
          "internalType": "address",
          "name": "_sender",
          "type": "address"
        },
        {
          "indexed": false,
          "internalType": "string",
          "name": "_message",
          "type": "string"
        }
      ],
      "name": "Evento",
      "type": "event"
    },
    {
      "inputs": [
        {
          "internalType": "string",
          "name": "",
          "type": "string"
        }
      ],
      "name": "cartellaClinica",
      "outputs": [
        {
          "internalType": "string",
          "name": "",
          "type": "string"
        }
      ],
      "stateMutability": "view",
      "type": "function",
      "constant": true
    },
    {
      "inputs": [
        {
          "internalType": "string",
          "name": "",
          "type": "string"
        },
        {
          "internalType": "uint256",
          "name": "",
          "type": "uint256"
        }
      ],
      "name": "farmaco",
      "outputs": [
        {
          "internalType": "string",
          "name": "",
          "type": "string"
        }
      ],
      "stateMutability": "view",
      "type": "function",
      "constant": true
    },
    {
      "inputs": [
        {
          "internalType": "string",
          "name": "",
          "type": "string"
        },
        {
          "internalType": "uint256",
          "name": "",
          "type": "uint256"
        }
      ],
      "name": "patologie",
      "outputs": [
        {
          "internalType": "string",
          "name": "",
          "type": "string"
        }
      ],
      "stateMutability": "view",
      "type": "function",
      "constant": true
    },
    {
      "inputs": [
        {
          "internalType": "string",
          "name": "",
          "type": "string"
        },
        {
          "internalType": "string",
          "name": "",
          "type": "string"
        },
        {
          "internalType": "uint256",
          "name": "",
          "type": "uint256"
        }
      ],
      "name": "visita",
      "outputs": [
        {
          "internalType": "string",
          "name": "",
          "type": "string"
        }
      ],
      "stateMutability": "view",
      "type": "function",
      "constant": true
    },
    {
      "inputs": [
        {
          "internalType": "string",
          "name": "_codiceFiscaleMedico",
          "type": "string"
        },
        {
          "internalType": "string",
          "name": "_codiceFiscalePaziente",
          "type": "string"
        },
        {
          "internalType": "string",
          "name": "_hashDati",
          "type": "string"
        }
      ],
      "name": "storeHashVisita",
      "outputs": [],
      "stateMutability": "nonpayable",
      "type": "function"
    },
    {
      "inputs": [
        {
          "internalType": "string",
          "name": "_codiceFiscaleMedico",
          "type": "string"
        },
        {
          "internalType": "string",
          "name": "_codiceFiscalePaziente",
          "type": "string"
        }
      ],
      "name": "retrieveHashVisita",
      "outputs": [
        {
          "internalType": "string[]",
          "name": "",
          "type": "string[]"
        }
      ],
      "stateMutability": "view",
      "type": "function",
      "constant": true
    },
    {
      "inputs": [
        {
          "internalType": "string",
          "name": "_codiceFiscalePaziente",
          "type": "string"
        },
        {
          "internalType": "string",
          "name": "_hashDati",
          "type": "string"
        }
      ],
      "name": "storeHashCartellaClinica",
      "outputs": [],
      "stateMutability": "nonpayable",
      "type": "function"
    },
    {
      "inputs": [
        {
          "internalType": "string",
          "name": "_codiceFiscalePaziente",
          "type": "string"
        }
      ],
      "name": "retrieveHashCartellaClinica",
      "outputs": [
        {
          "internalType": "string",
          "name": "",
          "type": "string"
        }
      ],
      "stateMutability": "view",
      "type": "function",
      "constant": true
    },
    {
      "inputs": [
        {
          "internalType": "string",
          "name": "_codiceFiscalePaziente",
          "type": "string"
        },
        {
          "internalType": "string",
          "name": "_newHash",
          "type": "string"
        }
      ],
      "name": "modifyHashCartellaClinica",
      "outputs": [],
      "stateMutability": "nonpayable",
      "type": "function"
    },
    {
      "inputs": [
        {
          "internalType": "string",
          "name": "_codiceFiscalePaziente",
          "type": "string"
        },
        {
          "internalType": "string",
          "name": "_hashDati",
          "type": "string"
        }
      ],
      "name": "storeHashFarmaco",
      "outputs": [],
      "stateMutability": "nonpayable",
      "type": "function"
    },
    {
      "inputs": [
        {
          "internalType": "string",
          "name": "_codiceFiscalePaziente",
          "type": "string"
        }
      ],
      "name": "retrieveHashFarmaco",
      "outputs": [
        {
          "internalType": "string[]",
          "name": "",
          "type": "string[]"
        }
      ],
      "stateMutability": "view",
      "type": "function",
      "constant": true
    },
    {
      "inputs": [
        {
          "internalType": "string",
          "name": "_idCartellaClinica",
          "type": "string"
        },
        {
          "internalType": "string",
          "name": "_hashDati",
          "type": "string"
        }
      ],
      "name": "storeHashPatologie",
      "outputs": [],
      "stateMutability": "nonpayable",
      "type": "function"
    },
    {
      "inputs": [
        {
          "internalType": "string",
          "name": "_idCartellaClinica",
          "type": "string"
        }
      ],
      "name": "retrieveHashPatologie",
      "outputs": [
        {
          "internalType": "string[]",
          "name": "",
          "type": "string[]"
        }
      ],
      "stateMutability": "view",
      "type": "function",
      "constant": true
    }
  ],
  "bytecode": "0x608060405234801561001057600080fd5b506118b0806100206000396000f3fe608060405234801561001057600080fd5b50600436106100ce5760003560e01c806334f684471161008c57806368ec49391161006657806368ec4939146102335780638dee3d1014610263578063aa641eb814610293578063ded772cf146102af576100ce565b806334f68447146101b7578063534a5964146101e75780635b74bcda14610203576100ce565b806296c47e146100d35780631108fcd71461010357806311df45601461013357806319cf9b441461014f5780631aeb62f21461017f57806329a7d7521461019b575b600080fd5b6100ed60048036036100e89190810190611038565b6102df565b6040516100fa9190611629565b60405180910390f35b61011d60048036036101189190810190610ff7565b610403565b60405161012a9190611629565b60405180910390f35b61014d600480360361014891908101906110a4565b61050a565b005b610169600480360361016491908101906111ba565b6105fe565b604051610176919061164b565b60405180910390f35b61019960048036036101949190810190611038565b6106da565b005b6101b560048036036101b09190810190611038565b6107b1565b005b6101d160048036036101cc9190810190610fb6565b610863565b6040516101de919061164b565b60405180910390f35b61020160048036036101fc9190810190611038565b610929565b005b61021d60048036036102189190810190610ff7565b6109db565b60405161022a9190611629565b60405180910390f35b61024d60048036036102489190810190610ff7565b610ae2565b60405161025a919061166d565b60405180910390f35b61027d6004803603610278919081019061113b565b610ba2565b60405161028a919061164b565b60405180910390f35b6102ad60048036036102a89190810190611038565b610ca1565b005b6102c960048036036102c491908101906111ba565b610d78565b6040516102d6919061164b565b60405180910390f35b60606000836040516102f1919061155a565b90815260200160405180910390208260405161030d919061155a565b9081526020016040518091039020805480602002602001604051908101604052809291908181526020016000905b828210156103f7578382906000526020600020018054600181600116156101000203166002900480601f0160208091040260200160405190810160405280929190818152602001828054600181600116156101000203166002900480156103e35780601f106103b8576101008083540402835291602001916103e3565b820191906000526020600020905b8154815290600101906020018083116103c657829003601f168201915b50505050508152602001906001019061033b565b50505050905092915050565b6060600282604051610415919061155a565b9081526020016040518091039020805480602002602001604051908101604052809291908181526020016000905b828210156104ff578382906000526020600020018054600181600116156101000203166002900480601f0160208091040260200160405190810160405280929190818152602001828054600181600116156101000203166002900480156104eb5780601f106104c0576101008083540402835291602001916104eb565b820191906000526020600020905b8154815290600101906020018083116104ce57829003601f168201915b505050505081526020019060010190610443565b505050509050919050565b602081511461054e576040517f08c379a00000000000000000000000000000000000000000000000000000000081526004016105459061168f565b60405180910390fd5b60008360405161055e919061155a565b90815260200160405180910390208260405161057a919061155a565b9081526020016040518091039020819080600181540180825580915050600190039060005260206000200160009091909190915090805190602001906105c1929190610e54565b507f7125852639425aa27091c0670671d5a006e05057bf68a1d1d43e8851bc889723336040516105f191906115cd565b60405180910390a1505050565b600282805160208101820180518482526020830160208501208183528095505050505050818154811061062d57fe5b90600052602060002001600091509150508054600181600116156101000203166002900480601f0160208091040260200160405190810160405280929190818152602001828054600181600116156101000203166002900480156106d25780601f106106a7576101008083540402835291602001916106d2565b820191906000526020600020905b8154815290600101906020018083116106b557829003601f168201915b505050505081565b602081511461071e576040517f08c379a00000000000000000000000000000000000000000000000000000000081526004016107159061168f565b60405180910390fd5b60028260405161072e919061155a565b908152602001604051809103902081908060018154018082558091505060019003906000526020600020016000909190919091509080519060200190610775929190610e54565b507f7125852639425aa27091c0670671d5a006e05057bf68a1d1d43e8851bc889723336040516107a5919061159f565b60405180910390a15050565b60208151146107f5576040517f08c379a00000000000000000000000000000000000000000000000000000000081526004016107ec9061168f565b60405180910390fd5b80600183604051610806919061155a565b90815260200160405180910390209080519060200190610827929190610e54565b507f7125852639425aa27091c0670671d5a006e05057bf68a1d1d43e8851bc889723336040516108579190611571565b60405180910390a15050565b6001818051602081018201805184825260208301602085012081835280955050505050506000915090508054600181600116156101000203166002900480601f0160208091040260200160405190810160405280929190818152602001828054600181600116156101000203166002900480156109215780601f106108f657610100808354040283529160200191610921565b820191906000526020600020905b81548152906001019060200180831161090457829003601f168201915b505050505081565b602081511461096d576040517f08c379a00000000000000000000000000000000000000000000000000000000081526004016109649061168f565b60405180910390fd5b8060018360405161097e919061155a565b9081526020016040518091039020908051906020019061099f929190610e54565b507f7125852639425aa27091c0670671d5a006e05057bf68a1d1d43e8851bc889723336040516109cf9190611571565b60405180910390a15050565b60606003826040516109ed919061155a565b9081526020016040518091039020805480602002602001604051908101604052809291908181526020016000905b82821015610ad7578382906000526020600020018054600181600116156101000203166002900480601f016020809104026020016040519081016040528092919081815260200182805460018160011615610100020316600290048015610ac35780601f10610a9857610100808354040283529160200191610ac3565b820191906000526020600020905b815481529060010190602001808311610aa657829003601f168201915b505050505081526020019060010190610a1b565b505050509050919050565b6060600182604051610af4919061155a565b90815260200160405180910390208054600181600116156101000203166002900480601f016020809104026020016040519081016040528092919081815260200182805460018160011615610100020316600290048015610b965780601f10610b6b57610100808354040283529160200191610b96565b820191906000526020600020905b815481529060010190602001808311610b7957829003601f168201915b50505050509050919050565b600083805160208101820180518482526020830160208501208183528095505050505050828051602081018201805184825260208301602085012081835280955050505050508181548110610bf357fe5b9060005260206000200160009250925050508054600181600116156101000203166002900480601f016020809104026020016040519081016040528092919081815260200182805460018160011615610100020316600290048015610c995780601f10610c6e57610100808354040283529160200191610c99565b820191906000526020600020905b815481529060010190602001808311610c7c57829003601f168201915b505050505081565b6020815114610ce5576040517f08c379a0000000000000000000000000000000000000000000000000000000008152600401610cdc9061168f565b60405180910390fd5b600382604051610cf5919061155a565b908152602001604051809103902081908060018154018082558091505060019003906000526020600020016000909190919091509080519060200190610d3c929190610e54565b507f7125852639425aa27091c0670671d5a006e05057bf68a1d1d43e8851bc88972333604051610d6c91906115fb565b60405180910390a15050565b6003828051602081018201805184825260208301602085012081835280955050505050508181548110610da757fe5b90600052602060002001600091509150508054600181600116156101000203166002900480601f016020809104026020016040519081016040528092919081815260200182805460018160011615610100020316600290048015610e4c5780601f10610e2157610100808354040283529160200191610e4c565b820191906000526020600020905b815481529060010190602001808311610e2f57829003601f168201915b505050505081565b828054600181600116156101000203166002900490600052602060002090601f016020900481019282601f10610e9557805160ff1916838001178555610ec3565b82800160010185558215610ec3579182015b82811115610ec2578251825591602001919060010190610ea7565b5b509050610ed09190610ed4565b5090565b610ef691905b80821115610ef2576000816000905550600101610eda565b5090565b90565b600082601f830112610f0a57600080fd5b8135610f1d610f18826116dc565b6116af565b91508082526020830160208301858383011115610f3957600080fd5b610f44838284611810565b50505092915050565b600082601f830112610f5e57600080fd5b8135610f71610f6c82611708565b6116af565b91508082526020830160208301858383011115610f8d57600080fd5b610f98838284611810565b50505092915050565b600081359050610fb081611863565b92915050565b600060208284031215610fc857600080fd5b600082013567ffffffffffffffff811115610fe257600080fd5b610fee84828501610ef9565b91505092915050565b60006020828403121561100957600080fd5b600082013567ffffffffffffffff81111561102357600080fd5b61102f84828501610f4d565b91505092915050565b6000806040838503121561104b57600080fd5b600083013567ffffffffffffffff81111561106557600080fd5b61107185828601610f4d565b925050602083013567ffffffffffffffff81111561108e57600080fd5b61109a85828601610f4d565b9150509250929050565b6000806000606084860312156110b957600080fd5b600084013567ffffffffffffffff8111156110d357600080fd5b6110df86828701610f4d565b935050602084013567ffffffffffffffff8111156110fc57600080fd5b61110886828701610f4d565b925050604084013567ffffffffffffffff81111561112557600080fd5b61113186828701610f4d565b9150509250925092565b60008060006060848603121561115057600080fd5b600084013567ffffffffffffffff81111561116a57600080fd5b61117686828701610ef9565b935050602084013567ffffffffffffffff81111561119357600080fd5b61119f86828701610ef9565b92505060406111b086828701610fa1565b9150509250925092565b600080604083850312156111cd57600080fd5b600083013567ffffffffffffffff8111156111e757600080fd5b6111f385828601610ef9565b925050602061120485828601610fa1565b9150509250929050565b600061121a8383611310565b905092915050565b61122b816117da565b82525050565b600061123c82611744565b6112468185611772565b93508360208202850161125885611734565b8060005b858110156112945784840389528151611275858261120e565b945061128083611765565b925060208a0199505060018101905061125c565b50829750879550505050505092915050565b60006112b18261175a565b6112bb8185611794565b93506112cb81856020860161181f565b6112d481611852565b840191505092915050565b60006112ea8261175a565b6112f481856117a5565b935061130481856020860161181f565b80840191505092915050565b600061131b8261174f565b6113258185611783565b935061133581856020860161181f565b61133e81611852565b840191505092915050565b60006113548261174f565b61135e8185611794565b935061136e81856020860161181f565b61137781611852565b840191505092915050565b600061138f602b83611794565b91507f486173682063617274656c6c6120636c696e69636120636f7272657474616d6560008301527f6e74652073616c7661746f0000000000000000000000000000000000000000006020830152604082019050919050565b60006113f5602283611794565b91507f48617368206661726d61636f20636f7272657474616d656e74652073616c766160008301527f746f0000000000000000000000000000000000000000000000000000000000006020830152604082019050919050565b600061145b602183611794565b91507f486173682076697369746120636f7272657474616d656e74652073616c76617460008301527f6f000000000000000000000000000000000000000000000000000000000000006020830152604082019050919050565b60006114c1602483611794565b91507f48617368207061746f6c6f67696120636f7272657474616d656e74652073616c60008301527f7661746f000000000000000000000000000000000000000000000000000000006020830152604082019050919050565b6000611527601183611794565b91507f48617368206e6f6e20636f72726574746f0000000000000000000000000000006000830152602082019050919050565b600061156682846112df565b915081905092915050565b60006040820190506115866000830184611222565b818103602083015261159781611382565b905092915050565b60006040820190506115b46000830184611222565b81810360208301526115c5816113e8565b905092915050565b60006040820190506115e26000830184611222565b81810360208301526115f38161144e565b905092915050565b60006040820190506116106000830184611222565b8181036020830152611621816114b4565b905092915050565b600060208201905081810360008301526116438184611231565b905092915050565b600060208201905081810360008301526116658184611349565b905092915050565b6000602082019050818103600083015261168781846112a6565b905092915050565b600060208201905081810360008301526116a88161151a565b9050919050565b6000604051905081810181811067ffffffffffffffff821117156116d257600080fd5b8060405250919050565b600067ffffffffffffffff8211156116f357600080fd5b601f19601f8301169050602081019050919050565b600067ffffffffffffffff82111561171f57600080fd5b601f19601f8301169050602081019050919050565b6000819050602082019050919050565b600081519050919050565b600081519050919050565b600081519050919050565b6000602082019050919050565b600082825260208201905092915050565b600082825260208201905092915050565b600082825260208201905092915050565b600081905092915050565b600073ffffffffffffffffffffffffffffffffffffffff82169050919050565b6000819050919050565b60006117e5826117ec565b9050919050565b60006117f7826117fe565b9050919050565b6000611809826117b0565b9050919050565b82818337600083830152505050565b60005b8381101561183d578082015181840152602081019050611822565b8381111561184c576000848401525b50505050565b6000601f19601f8301169050919050565b61186c816117d0565b811461187757600080fd5b5056fea26469706673582212202d088f3ccf5de5424715c61aee542518a1fb30928c4e95dd267b025e773854de64736f6c63430006000033",
  "source": "pragma solidity ^0.6.0;\npragma experimental ABIEncoderV2;\n\ncontract MedicoContract {\n\n    mapping(string => mapping(string => string[])) public visita;\n    mapping(string => string) public cartellaClinica;\n    mapping(string => string[]) public farmaco;\n    mapping(string => string[]) public patologie;\n\n    event Evento(address  _sender, string _message);\n\n\n    // Funzione per memorizzare un hash nella mappatura\n    function storeHashVisita(string memory _codiceFiscaleMedico, string memory _codiceFiscalePaziente, string memory _hashDati) public {\n        require(bytes(_hashDati).length == 32, \"Hash non corretto\");\n        visita[_codiceFiscaleMedico][_codiceFiscalePaziente].push(_hashDati);\n        emit Evento(msg.sender,\"Hash visita correttamente salvato\");\n    }\n\n    // Funzione per recuperare l'array di visite per una specifica coppia di codici fiscali medico e paziente\n    function retrieveHashVisita(string memory _codiceFiscaleMedico, string memory _codiceFiscalePaziente) public view returns (string[] memory) {\n        return visita[_codiceFiscaleMedico][_codiceFiscalePaziente];\n    }\n\n    // Funzione per memorizzare un hash nella mappatura\n    function storeHashCartellaClinica(string memory _codiceFiscalePaziente, string memory _hashDati) public {\n        require(bytes(_hashDati).length == 32, \"Hash non corretto\");\n        cartellaClinica[_codiceFiscalePaziente] = _hashDati;\n        emit Evento(msg.sender,\"Hash cartella clinica correttamente salvato\");\n    }\n\n    // Funzione per recuperare l'hash per un determinato codice fiscale del paziente\n    function retrieveHashCartellaClinica(string memory _codiceFiscalePaziente) public view returns (string memory) {\n        return cartellaClinica[_codiceFiscalePaziente];\n    }\n\n    // Funzione per aggiornare l'hash di una cartella clinica\n    function modifyHashCartellaClinica(string memory _codiceFiscalePaziente, string memory _newHash) public {\n        require(bytes(_newHash).length == 32, \"Hash non corretto\");\n        cartellaClinica[_codiceFiscalePaziente] = _newHash;\n        emit Evento(msg.sender,\"Hash cartella clinica correttamente salvato\");\n    }\n\n    // Funzione per memorizzare un farmaco nella mappatura\n    function storeHashFarmaco(string memory _codiceFiscalePaziente, string memory _hashDati) public {\n        require(bytes(_hashDati).length == 32, \"Hash non corretto\");\n        farmaco[_codiceFiscalePaziente].push(_hashDati);\n        emit Evento(msg.sender,\"Hash farmaco correttamente salvato\");\n    }\n\n    // Funzione per recuperare un farmaco\n    function retrieveHashFarmaco(string memory _codiceFiscalePaziente) public view returns (string[] memory) {\n        return farmaco[_codiceFiscalePaziente];\n    }\n\n        // Funzione per memorizzare una patologia nella mappatura\n    function storeHashPatologie(string memory _idCartellaClinica, string memory _hashDati) public {\n        require(bytes(_hashDati).length == 32, \"Hash non corretto\");\n        patologie[_idCartellaClinica].push(_hashDati);\n        emit Evento(msg.sender,\"Hash patologia correttamente salvato\");\n    }\n\n    // Funzione per recuperare una patologia\n    function retrieveHashPatologie(string memory _idCartellaClinica) public view returns (string[] memory) {\n        return patologie[_idCartellaClinica];\n    }\n\n    \n\n}\n",
  "sourcePath": "/Users/lauraferretti/Documents/SoftwareSecurity-Blockchain/solidityContracts/MedicoContract.sol",
  "compiler": {
    "name": "solc",
    "version": "0.6.0+commit.26b70077.Emscripten.clang"
  },
  "schemaVersion": "3.4.16",
  "updatedAt": "2024-04-23T14:58:53.230Z",
  "networkType": "ethereum",
  "devdoc": {
    "methods": {}
  },
  "userdoc": {
    "methods": {}
  }
}