{
  "contractName": "MedicoContract",
  "abi": [
    {
      "inputs": [
        {
          "internalType": "string",
          "name": "",
          "type": "string"
        }
      ],
      "name": "cartellaClinica",
      "outputs": [
        {
          "internalType": "string",
          "name": "",
          "type": "string"
        }
      ],
      "stateMutability": "view",
      "type": "function",
      "constant": true
    },
    {
      "inputs": [
        {
          "internalType": "string",
          "name": "",
          "type": "string"
        },
        {
          "internalType": "uint256",
          "name": "",
          "type": "uint256"
        }
      ],
      "name": "farmaco",
      "outputs": [
        {
          "internalType": "string",
          "name": "",
          "type": "string"
        }
      ],
      "stateMutability": "view",
      "type": "function",
      "constant": true
    },
    {
      "inputs": [
        {
          "internalType": "string",
          "name": "",
          "type": "string"
        },
        {
          "internalType": "uint256",
          "name": "",
          "type": "uint256"
        }
      ],
      "name": "patologie",
      "outputs": [
        {
          "internalType": "string",
          "name": "",
          "type": "string"
        }
      ],
      "stateMutability": "view",
      "type": "function",
      "constant": true
    },
    {
      "inputs": [
        {
          "internalType": "string",
          "name": "",
          "type": "string"
        },
        {
          "internalType": "string",
          "name": "",
          "type": "string"
        },
        {
          "internalType": "uint256",
          "name": "",
          "type": "uint256"
        }
      ],
      "name": "visita",
      "outputs": [
        {
          "internalType": "string",
          "name": "",
          "type": "string"
        }
      ],
      "stateMutability": "view",
      "type": "function",
      "constant": true
    },
    {
      "inputs": [
        {
          "internalType": "string",
          "name": "_codiceFiscaleMedico",
          "type": "string"
        },
        {
          "internalType": "string",
          "name": "_codiceFiscalePaziente",
          "type": "string"
        },
        {
          "internalType": "string",
          "name": "_hashDati",
          "type": "string"
        }
      ],
      "name": "storeHashVisita",
      "outputs": [],
      "stateMutability": "nonpayable",
      "type": "function"
    },
    {
      "inputs": [
        {
          "internalType": "string",
          "name": "_codiceFiscaleMedico",
          "type": "string"
        },
        {
          "internalType": "string",
          "name": "_codiceFiscalePaziente",
          "type": "string"
        }
      ],
      "name": "retrieveHashVisita",
      "outputs": [
        {
          "internalType": "string[]",
          "name": "",
          "type": "string[]"
        }
      ],
      "stateMutability": "view",
      "type": "function",
      "constant": true
    },
    {
      "inputs": [
        {
          "internalType": "string",
          "name": "_codiceFiscalePaziente",
          "type": "string"
        },
        {
          "internalType": "string",
          "name": "_hashDati",
          "type": "string"
        }
      ],
      "name": "storeHashCartellaClinica",
      "outputs": [],
      "stateMutability": "nonpayable",
      "type": "function"
    },
    {
      "inputs": [
        {
          "internalType": "string",
          "name": "_codiceFiscalePaziente",
          "type": "string"
        }
      ],
      "name": "retrieveHashCartellaClinica",
      "outputs": [
        {
          "internalType": "string",
          "name": "",
          "type": "string"
        }
      ],
      "stateMutability": "view",
      "type": "function",
      "constant": true
    },
    {
      "inputs": [
        {
          "internalType": "string",
          "name": "_codiceFiscalePaziente",
          "type": "string"
        },
        {
          "internalType": "string",
          "name": "_newHash",
          "type": "string"
        }
      ],
      "name": "modifyHashCartellaClinica",
      "outputs": [],
      "stateMutability": "nonpayable",
      "type": "function"
    },
    {
      "inputs": [
        {
          "internalType": "string",
          "name": "_codiceFiscalePaziente",
          "type": "string"
        },
        {
          "internalType": "string",
          "name": "_hashDati",
          "type": "string"
        }
      ],
      "name": "storeHashFarmaco",
      "outputs": [],
      "stateMutability": "nonpayable",
      "type": "function"
    },
    {
      "inputs": [
        {
          "internalType": "string",
          "name": "_codiceFiscalePaziente",
          "type": "string"
        }
      ],
      "name": "retrieveHashFarmaco",
      "outputs": [
        {
          "internalType": "string[]",
          "name": "",
          "type": "string[]"
        }
      ],
      "stateMutability": "view",
      "type": "function",
      "constant": true
    },
    {
      "inputs": [
        {
          "internalType": "string",
          "name": "_idCartellaClinica",
          "type": "string"
        },
        {
          "internalType": "string",
          "name": "_hashDati",
          "type": "string"
        }
      ],
      "name": "storeHashPatologie",
      "outputs": [],
      "stateMutability": "nonpayable",
      "type": "function"
    },
    {
      "inputs": [
        {
          "internalType": "string",
          "name": "_idCartellaClinica",
          "type": "string"
        }
      ],
      "name": "retrieveHashPatologie",
      "outputs": [
        {
          "internalType": "string[]",
          "name": "",
          "type": "string[]"
        }
      ],
      "stateMutability": "view",
      "type": "function",
      "constant": true
    }
  ],
  "bytecode": "0x608060405234801561001057600080fd5b50611334806100206000396000f3fe608060405234801561001057600080fd5b50600436106100ce5760003560e01c806334f684471161008c57806368ec49391161006657806368ec4939146102335780638dee3d1014610263578063aa641eb814610293578063ded772cf146102af576100ce565b806334f68447146101b7578063534a5964146101e75780635b74bcda14610203576100ce565b806296c47e146100d35780631108fcd71461010357806311df45601461013357806319cf9b441461014f5780631aeb62f21461017f57806329a7d7521461019b575b600080fd5b6100ed60048036036100e89190810190610dd1565b6102df565b6040516100fa9190611123565b60405180910390f35b61011d60048036036101189190810190610d90565b610403565b60405161012a9190611123565b60405180910390f35b61014d60048036036101489190810190610e3d565b61050a565b005b61016960048036036101649190810190610f53565b610583565b6040516101769190611145565b60405180910390f35b61019960048036036101949190810190610dd1565b61065f565b005b6101b560048036036101b09190810190610dd1565b6106bb565b005b6101d160048036036101cc9190810190610d4f565b6106f2565b6040516101de9190611145565b60405180910390f35b61020160048036036101fc9190810190610dd1565b6107b8565b005b61021d60048036036102189190810190610d90565b6107ef565b60405161022a9190611123565b60405180910390f35b61024d60048036036102489190810190610d90565b6108f6565b60405161025a9190611167565b60405180910390f35b61027d60048036036102789190810190610ed4565b6109b6565b60405161028a9190611145565b60405180910390f35b6102ad60048036036102a89190810190610dd1565b610ab5565b005b6102c960048036036102c49190810190610f53565b610b11565b6040516102d69190611145565b60405180910390f35b60606000836040516102f1919061110c565b90815260200160405180910390208260405161030d919061110c565b9081526020016040518091039020805480602002602001604051908101604052809291908181526020016000905b828210156103f7578382906000526020600020018054600181600116156101000203166002900480601f0160208091040260200160405190810160405280929190818152602001828054600181600116156101000203166002900480156103e35780601f106103b8576101008083540402835291602001916103e3565b820191906000526020600020905b8154815290600101906020018083116103c657829003601f168201915b50505050508152602001906001019061033b565b50505050905092915050565b6060600282604051610415919061110c565b9081526020016040518091039020805480602002602001604051908101604052809291908181526020016000905b828210156104ff578382906000526020600020018054600181600116156101000203166002900480601f0160208091040260200160405190810160405280929190818152602001828054600181600116156101000203166002900480156104eb5780601f106104c0576101008083540402835291602001916104eb565b820191906000526020600020905b8154815290600101906020018083116104ce57829003601f168201915b505050505081526020019060010190610443565b505050509050919050565b60008360405161051a919061110c565b908152602001604051809103902082604051610536919061110c565b90815260200160405180910390208190806001815401808255809150506001900390600052602060002001600090919091909150908051906020019061057d929190610bed565b50505050565b60028280516020810182018051848252602083016020850120818352809550505050505081815481106105b257fe5b90600052602060002001600091509150508054600181600116156101000203166002900480601f0160208091040260200160405190810160405280929190818152602001828054600181600116156101000203166002900480156106575780601f1061062c57610100808354040283529160200191610657565b820191906000526020600020905b81548152906001019060200180831161063a57829003601f168201915b505050505081565b60028260405161066f919061110c565b9081526020016040518091039020819080600181540180825580915050600190039060005260206000200160009091909190915090805190602001906106b6929190610bed565b505050565b806001836040516106cc919061110c565b908152602001604051809103902090805190602001906106ed929190610bed565b505050565b6001818051602081018201805184825260208301602085012081835280955050505050506000915090508054600181600116156101000203166002900480601f0160208091040260200160405190810160405280929190818152602001828054600181600116156101000203166002900480156107b05780601f10610785576101008083540402835291602001916107b0565b820191906000526020600020905b81548152906001019060200180831161079357829003601f168201915b505050505081565b806001836040516107c9919061110c565b908152602001604051809103902090805190602001906107ea929190610bed565b505050565b6060600382604051610801919061110c565b9081526020016040518091039020805480602002602001604051908101604052809291908181526020016000905b828210156108eb578382906000526020600020018054600181600116156101000203166002900480601f0160208091040260200160405190810160405280929190818152602001828054600181600116156101000203166002900480156108d75780601f106108ac576101008083540402835291602001916108d7565b820191906000526020600020905b8154815290600101906020018083116108ba57829003601f168201915b50505050508152602001906001019061082f565b505050509050919050565b6060600182604051610908919061110c565b90815260200160405180910390208054600181600116156101000203166002900480601f0160208091040260200160405190810160405280929190818152602001828054600181600116156101000203166002900480156109aa5780601f1061097f576101008083540402835291602001916109aa565b820191906000526020600020905b81548152906001019060200180831161098d57829003601f168201915b50505050509050919050565b600083805160208101820180518482526020830160208501208183528095505050505050828051602081018201805184825260208301602085012081835280955050505050508181548110610a0757fe5b9060005260206000200160009250925050508054600181600116156101000203166002900480601f016020809104026020016040519081016040528092919081815260200182805460018160011615610100020316600290048015610aad5780601f10610a8257610100808354040283529160200191610aad565b820191906000526020600020905b815481529060010190602001808311610a9057829003601f168201915b505050505081565b600382604051610ac5919061110c565b908152602001604051809103902081908060018154018082558091505060019003906000526020600020016000909190919091509080519060200190610b0c929190610bed565b505050565b6003828051602081018201805184825260208301602085012081835280955050505050508181548110610b4057fe5b90600052602060002001600091509150508054600181600116156101000203166002900480601f016020809104026020016040519081016040528092919081815260200182805460018160011615610100020316600290048015610be55780601f10610bba57610100808354040283529160200191610be5565b820191906000526020600020905b815481529060010190602001808311610bc857829003601f168201915b505050505081565b828054600181600116156101000203166002900490600052602060002090601f016020900481019282601f10610c2e57805160ff1916838001178555610c5c565b82800160010185558215610c5c579182015b82811115610c5b578251825591602001919060010190610c40565b5b509050610c699190610c6d565b5090565b610c8f91905b80821115610c8b576000816000905550600101610c73565b5090565b90565b600082601f830112610ca357600080fd5b8135610cb6610cb1826111b6565b611189565b91508082526020830160208301858383011115610cd257600080fd5b610cdd838284611294565b50505092915050565b600082601f830112610cf757600080fd5b8135610d0a610d05826111e2565b611189565b91508082526020830160208301858383011115610d2657600080fd5b610d31838284611294565b50505092915050565b600081359050610d49816112e7565b92915050565b600060208284031215610d6157600080fd5b600082013567ffffffffffffffff811115610d7b57600080fd5b610d8784828501610c92565b91505092915050565b600060208284031215610da257600080fd5b600082013567ffffffffffffffff811115610dbc57600080fd5b610dc884828501610ce6565b91505092915050565b60008060408385031215610de457600080fd5b600083013567ffffffffffffffff811115610dfe57600080fd5b610e0a85828601610ce6565b925050602083013567ffffffffffffffff811115610e2757600080fd5b610e3385828601610ce6565b9150509250929050565b600080600060608486031215610e5257600080fd5b600084013567ffffffffffffffff811115610e6c57600080fd5b610e7886828701610ce6565b935050602084013567ffffffffffffffff811115610e9557600080fd5b610ea186828701610ce6565b925050604084013567ffffffffffffffff811115610ebe57600080fd5b610eca86828701610ce6565b9150509250925092565b600080600060608486031215610ee957600080fd5b600084013567ffffffffffffffff811115610f0357600080fd5b610f0f86828701610c92565b935050602084013567ffffffffffffffff811115610f2c57600080fd5b610f3886828701610c92565b9250506040610f4986828701610d3a565b9150509250925092565b60008060408385031215610f6657600080fd5b600083013567ffffffffffffffff811115610f8057600080fd5b610f8c85828601610c92565b9250506020610f9d85828601610d3a565b9150509250929050565b6000610fb3838361109a565b905092915050565b6000610fc68261121e565b610fd0818561124c565b935083602082028501610fe28561120e565b8060005b8581101561101e5784840389528151610fff8582610fa7565b945061100a8361123f565b925060208a01995050600181019050610fe6565b50829750879550505050505092915050565b600061103b82611234565b611045818561126e565b93506110558185602086016112a3565b61105e816112d6565b840191505092915050565b600061107482611234565b61107e818561127f565b935061108e8185602086016112a3565b80840191505092915050565b60006110a582611229565b6110af818561125d565b93506110bf8185602086016112a3565b6110c8816112d6565b840191505092915050565b60006110de82611229565b6110e8818561126e565b93506110f88185602086016112a3565b611101816112d6565b840191505092915050565b60006111188284611069565b915081905092915050565b6000602082019050818103600083015261113d8184610fbb565b905092915050565b6000602082019050818103600083015261115f81846110d3565b905092915050565b600060208201905081810360008301526111818184611030565b905092915050565b6000604051905081810181811067ffffffffffffffff821117156111ac57600080fd5b8060405250919050565b600067ffffffffffffffff8211156111cd57600080fd5b601f19601f8301169050602081019050919050565b600067ffffffffffffffff8211156111f957600080fd5b601f19601f8301169050602081019050919050565b6000819050602082019050919050565b600081519050919050565b600081519050919050565b600081519050919050565b6000602082019050919050565b600082825260208201905092915050565b600082825260208201905092915050565b600082825260208201905092915050565b600081905092915050565b6000819050919050565b82818337600083830152505050565b60005b838110156112c15780820151818401526020810190506112a6565b838111156112d0576000848401525b50505050565b6000601f19601f8301169050919050565b6112f08161128a565b81146112fb57600080fd5b5056fea2646970667358221220c8f046dd989fdab42e27ca5787b701b051fea677e9e392b7e38485cfdb2e22bc64736f6c63430006000033",
  "source": "pragma solidity ^0.6.0;\npragma experimental ABIEncoderV2;\n\ncontract MedicoContract {\n\n    mapping(string => mapping(string => string[])) public visita;\n    mapping(string => string) public cartellaClinica;\n    mapping(string => string[]) public farmaco;\n    mapping(string => string[]) public patologie;\n\n    // Funzione per memorizzare un hash nella mappatura\n    function storeHashVisita(string memory _codiceFiscaleMedico, string memory _codiceFiscalePaziente, string memory _hashDati) public {\n        visita[_codiceFiscaleMedico][_codiceFiscalePaziente].push(_hashDati);\n    }\n\n    // Funzione per recuperare l'array di visite per una specifica coppia di codici fiscali medico e paziente\n    function retrieveHashVisita(string memory _codiceFiscaleMedico, string memory _codiceFiscalePaziente) public view returns (string[] memory) {\n        return visita[_codiceFiscaleMedico][_codiceFiscalePaziente];\n    }\n\n    // Funzione per memorizzare un hash nella mappatura\n    function storeHashCartellaClinica(string memory _codiceFiscalePaziente, string memory _hashDati) public {\n        cartellaClinica[_codiceFiscalePaziente] = _hashDati;\n    }\n\n    // Funzione per recuperare l'hash per un determinato codice fiscale del paziente\n    function retrieveHashCartellaClinica(string memory _codiceFiscalePaziente) public view returns (string memory) {\n        return cartellaClinica[_codiceFiscalePaziente];\n    }\n\n    // Funzione per aggiornare l'hash di una cartella clinica\n    function modifyHashCartellaClinica(string memory _codiceFiscalePaziente, string memory _newHash) public {\n        cartellaClinica[_codiceFiscalePaziente] = _newHash;\n    }\n\n    // Funzione per memorizzare un farmaco nella mappatura\n    function storeHashFarmaco(string memory _codiceFiscalePaziente, string memory _hashDati) public {\n        farmaco[_codiceFiscalePaziente].push(_hashDati);\n    }\n\n    // Funzione per recuperare un farmaco\n    function retrieveHashFarmaco(string memory _codiceFiscalePaziente) public view returns (string[] memory) {\n        return farmaco[_codiceFiscalePaziente];\n    }\n\n        // Funzione per memorizzare una patologia nella mappatura\n    function storeHashPatologie(string memory _idCartellaClinica, string memory _hashDati) public {\n        patologie[_idCartellaClinica].push(_hashDati);\n    }\n\n    // Funzione per recuperare una patologia\n    function retrieveHashPatologie(string memory _idCartellaClinica) public view returns (string[] memory) {\n        return patologie[_idCartellaClinica];\n    }\n}\n",
  "sourcePath": "/Users/lauraferretti/Desktop/SoftwareSecurity-Blockchain/solidityContracts/MedicoContract.sol",
  "compiler": {
    "name": "solc",
    "version": "0.6.0+commit.26b70077.Emscripten.clang"
  },
  "schemaVersion": "3.4.16",
  "updatedAt": "2024-04-13T15:40:59.532Z",
  "networkType": "ethereum",
  "devdoc": {
    "methods": {}
  },
  "userdoc": {
    "methods": {}
  }
}