{
  "contractName": "OSContract",
  "abi": [
    {
      "inputs": [
        {
          "internalType": "string",
          "name": "",
          "type": "string"
        },
        {
          "internalType": "string",
          "name": "",
          "type": "string"
        },
        {
          "internalType": "uint256",
          "name": "",
          "type": "uint256"
        }
      ],
      "name": "visita",
      "outputs": [
        {
          "internalType": "string",
          "name": "",
          "type": "string"
        }
      ],
      "stateMutability": "view",
      "type": "function",
      "constant": true
    },
    {
      "inputs": [
        {
          "internalType": "string",
          "name": "_codiceFiscaleMedico",
          "type": "string"
        },
        {
          "internalType": "string",
          "name": "_codiceFiscalePaziente",
          "type": "string"
        },
        {
          "internalType": "string",
          "name": "_hashDati",
          "type": "string"
        }
      ],
      "name": "storeHashVisita",
      "outputs": [],
      "stateMutability": "nonpayable",
      "type": "function"
    },
    {
      "inputs": [
        {
          "internalType": "string",
          "name": "_codiceFiscaleMedico",
          "type": "string"
        },
        {
          "internalType": "string",
          "name": "_codiceFiscalePaziente",
          "type": "string"
        }
      ],
      "name": "retrieveHashVisita",
      "outputs": [
        {
          "internalType": "string[]",
          "name": "",
          "type": "string[]"
        }
      ],
      "stateMutability": "view",
      "type": "function",
      "constant": true
    }
  ],
  "bytecode": "0x608060405234801561001057600080fd5b50610973806100206000396000f3fe608060405234801561001057600080fd5b50600436106100405760003560e01c806296c47e1461004557806311df4560146100755780638dee3d1014610091575b600080fd5b61005f600480360361005a91908101906104bf565b6100c1565b60405161006c9190610784565b60405180910390f35b61008f600480360361008a919081019061052b565b6101e5565b005b6100ab60048036036100a691908101906105c2565b61025e565b6040516100b891906107a6565b60405180910390f35b60606000836040516100d3919061076d565b9081526020016040518091039020826040516100ef919061076d565b9081526020016040518091039020805480602002602001604051908101604052809291908181526020016000905b828210156101d9578382906000526020600020018054600181600116156101000203166002900480601f0160208091040260200160405190810160405280929190818152602001828054600181600116156101000203166002900480156101c55780601f1061019a576101008083540402835291602001916101c5565b820191906000526020600020905b8154815290600101906020018083116101a857829003601f168201915b50505050508152602001906001019061011d565b50505050905092915050565b6000836040516101f5919061076d565b908152602001604051809103902082604051610211919061076d565b90815260200160405180910390208190806001815401808255809150506001900390600052602060002001600090919091909150908051906020019061025892919061035d565b50505050565b6000838051602081018201805184825260208301602085012081835280955050505050508280516020810182018051848252602083016020850120818352809550505050505081815481106102af57fe5b9060005260206000200160009250925050508054600181600116156101000203166002900480601f0160208091040260200160405190810160405280929190818152602001828054600181600116156101000203166002900480156103555780601f1061032a57610100808354040283529160200191610355565b820191906000526020600020905b81548152906001019060200180831161033857829003601f168201915b505050505081565b828054600181600116156101000203166002900490600052602060002090601f016020900481019282601f1061039e57805160ff19168380011785556103cc565b828001600101855582156103cc579182015b828111156103cb5782518255916020019190600101906103b0565b5b5090506103d991906103dd565b5090565b6103ff91905b808211156103fb5760008160009055506001016103e3565b5090565b90565b600082601f83011261041357600080fd5b8135610426610421826107f5565b6107c8565b9150808252602083016020830185838301111561044257600080fd5b61044d8382846108d3565b50505092915050565b600082601f83011261046757600080fd5b813561047a61047582610821565b6107c8565b9150808252602083016020830185838301111561049657600080fd5b6104a18382846108d3565b50505092915050565b6000813590506104b981610926565b92915050565b600080604083850312156104d257600080fd5b600083013567ffffffffffffffff8111156104ec57600080fd5b6104f885828601610456565b925050602083013567ffffffffffffffff81111561051557600080fd5b61052185828601610456565b9150509250929050565b60008060006060848603121561054057600080fd5b600084013567ffffffffffffffff81111561055a57600080fd5b61056686828701610456565b935050602084013567ffffffffffffffff81111561058357600080fd5b61058f86828701610456565b925050604084013567ffffffffffffffff8111156105ac57600080fd5b6105b886828701610456565b9150509250925092565b6000806000606084860312156105d757600080fd5b600084013567ffffffffffffffff8111156105f157600080fd5b6105fd86828701610402565b935050602084013567ffffffffffffffff81111561061a57600080fd5b61062686828701610402565b9250506040610637868287016104aa565b9150509250925092565b600061064d83836106fb565b905092915050565b60006106608261085d565b61066a818561088b565b93508360208202850161067c8561084d565b8060005b858110156106b857848403895281516106998582610641565b94506106a48361087e565b925060208a01995050600181019050610680565b50829750879550505050505092915050565b60006106d582610873565b6106df81856108be565b93506106ef8185602086016108e2565b80840191505092915050565b600061070682610868565b610710818561089c565b93506107208185602086016108e2565b61072981610915565b840191505092915050565b600061073f82610868565b61074981856108ad565b93506107598185602086016108e2565b61076281610915565b840191505092915050565b600061077982846106ca565b915081905092915050565b6000602082019050818103600083015261079e8184610655565b905092915050565b600060208201905081810360008301526107c08184610734565b905092915050565b6000604051905081810181811067ffffffffffffffff821117156107eb57600080fd5b8060405250919050565b600067ffffffffffffffff82111561080c57600080fd5b601f19601f8301169050602081019050919050565b600067ffffffffffffffff82111561083857600080fd5b601f19601f8301169050602081019050919050565b6000819050602082019050919050565b600081519050919050565b600081519050919050565b600081519050919050565b6000602082019050919050565b600082825260208201905092915050565b600082825260208201905092915050565b600082825260208201905092915050565b600081905092915050565b6000819050919050565b82818337600083830152505050565b60005b838110156109005780820151818401526020810190506108e5565b8381111561090f576000848401525b50505050565b6000601f19601f8301169050919050565b61092f816108c9565b811461093a57600080fd5b5056fea26469706673582212205e3f087dc52d7a302415aeae8c9f21483334035efd96e5bd6ba5b332c276fae664736f6c63430006000033",
  "source": "pragma solidity ^0.6.0;\npragma experimental ABIEncoderV2;\n\ncontract OSContract {\n\n    mapping(string => mapping(string => string[])) public visita;\n\n        // Funzione per memorizzare un hash nella mappatura\n    function storeHashVisita(string memory _codiceFiscaleMedico, string memory _codiceFiscalePaziente, string memory _hashDati) public {\n        visita[_codiceFiscaleMedico][_codiceFiscalePaziente].push(_hashDati);\n    }\n\n    // Funzione per recuperare l'array di visite per una specifica coppia di codici fiscali medico e paziente\n    function retrieveHashVisita(string memory _codiceFiscaleMedico, string memory _codiceFiscalePaziente) public view returns (string[] memory) {\n        return visita[_codiceFiscaleMedico][_codiceFiscalePaziente];\n    }\n    \n}\n",
  "sourcePath": "/Users/lauraferretti/Desktop/SoftwareSecurity-Blockchain/solidityContracts/OSContract.sol",
  "compiler": {
    "name": "solc",
    "version": "0.6.0+commit.26b70077.Emscripten.clang"
  },
  "schemaVersion": "3.4.16",
  "updatedAt": "2024-04-13T15:40:59.752Z",
  "networkType": "ethereum",
  "devdoc": {
    "methods": {}
  },
  "userdoc": {
    "methods": {}
  }
}