{
  "contractName": "OSContract",
  "abi": [
    {
      "anonymous": false,
      "inputs": [
        {
          "indexed": false,
          "internalType": "address",
          "name": "msg",
          "type": "address"
        },
        {
          "indexed": false,
          "internalType": "string",
          "name": "message",
          "type": "string"
        }
      ],
      "name": "Evento",
      "type": "event"
    },
    {
      "inputs": [
        {
          "internalType": "string",
          "name": "",
          "type": "string"
        },
        {
          "internalType": "string",
          "name": "",
          "type": "string"
        },
        {
          "internalType": "uint256",
          "name": "",
          "type": "uint256"
        }
      ],
      "name": "visita",
      "outputs": [
        {
          "internalType": "string",
          "name": "",
          "type": "string"
        }
      ],
      "stateMutability": "view",
      "type": "function",
      "constant": true
    },
    {
      "inputs": [
        {
          "internalType": "string",
          "name": "_codiceFiscaleMedico",
          "type": "string"
        },
        {
          "internalType": "string",
          "name": "_codiceFiscalePaziente",
          "type": "string"
        },
        {
          "internalType": "string",
          "name": "_hashDati",
          "type": "string"
        }
      ],
      "name": "storeHashVisita",
      "outputs": [],
      "stateMutability": "nonpayable",
      "type": "function"
    },
    {
      "inputs": [
        {
          "internalType": "string",
          "name": "_codiceFiscaleOS",
          "type": "string"
        },
        {
          "internalType": "string",
          "name": "_codiceFiscalePaziente",
          "type": "string"
        }
      ],
      "name": "retrieveHashVisita",
      "outputs": [
        {
          "internalType": "string[]",
          "name": "",
          "type": "string[]"
        }
      ],
      "stateMutability": "view",
      "type": "function",
      "constant": true
    }
  ],
  "bytecode": "0x608060405234801561001057600080fd5b50610b47806100206000396000f3fe608060405234801561001057600080fd5b50600436106100405760003560e01c806296c47e1461004557806311df4560146100755780638dee3d1014610091575b600080fd5b61005f600480360361005a919081019061053a565b6100c1565b60405161006c91906108e2565b60405180910390f35b61008f600480360361008a91908101906105a6565b6101e5565b005b6100ab60048036036100a6919081019061063d565b6102d9565b6040516100b89190610904565b60405180910390f35b60606000836040516100d3919061089d565b9081526020016040518091039020826040516100ef919061089d565b9081526020016040518091039020805480602002602001604051908101604052809291908181526020016000905b828210156101d9578382906000526020600020018054600181600116156101000203166002900480601f0160208091040260200160405190810160405280929190818152602001828054600181600116156101000203166002900480156101c55780601f1061019a576101008083540402835291602001916101c5565b820191906000526020600020905b8154815290600101906020018083116101a857829003601f168201915b50505050508152602001906001019061011d565b50505050905092915050565b6020815114610229576040517f08c379a000000000000000000000000000000000000000000000000000000000815260040161022090610926565b60405180910390fd5b600083604051610239919061089d565b908152602001604051809103902082604051610255919061089d565b90815260200160405180910390208190806001815401808255809150506001900390600052602060002001600090919091909150908051906020019061029c9291906103d8565b507f7125852639425aa27091c0670671d5a006e05057bf68a1d1d43e8851bc889723336040516102cc91906108b4565b60405180910390a1505050565b60008380516020810182018051848252602083016020850120818352809550505050505082805160208101820180518482526020830160208501208183528095505050505050818154811061032a57fe5b9060005260206000200160009250925050508054600181600116156101000203166002900480601f0160208091040260200160405190810160405280929190818152602001828054600181600116156101000203166002900480156103d05780601f106103a5576101008083540402835291602001916103d0565b820191906000526020600020905b8154815290600101906020018083116103b357829003601f168201915b505050505081565b828054600181600116156101000203166002900490600052602060002090601f016020900481019282601f1061041957805160ff1916838001178555610447565b82800160010185558215610447579182015b8281111561044657825182559160200191906001019061042b565b5b5090506104549190610458565b5090565b61047a91905b8082111561047657600081600090555060010161045e565b5090565b90565b600082601f83011261048e57600080fd5b81356104a161049c82610973565b610946565b915080825260208301602083018583830111156104bd57600080fd5b6104c8838284610aa7565b50505092915050565b600082601f8301126104e257600080fd5b81356104f56104f08261099f565b610946565b9150808252602083016020830185838301111561051157600080fd5b61051c838284610aa7565b50505092915050565b60008135905061053481610afa565b92915050565b6000806040838503121561054d57600080fd5b600083013567ffffffffffffffff81111561056757600080fd5b610573858286016104d1565b925050602083013567ffffffffffffffff81111561059057600080fd5b61059c858286016104d1565b9150509250929050565b6000806000606084860312156105bb57600080fd5b600084013567ffffffffffffffff8111156105d557600080fd5b6105e1868287016104d1565b935050602084013567ffffffffffffffff8111156105fe57600080fd5b61060a868287016104d1565b925050604084013567ffffffffffffffff81111561062757600080fd5b610633868287016104d1565b9150509250925092565b60008060006060848603121561065257600080fd5b600084013567ffffffffffffffff81111561066c57600080fd5b6106788682870161047d565b935050602084013567ffffffffffffffff81111561069557600080fd5b6106a18682870161047d565b92505060406106b286828701610525565b9150509250925092565b60006106c88383610785565b905092915050565b6106d981610a71565b82525050565b60006106ea826109db565b6106f48185610a09565b935083602082028501610706856109cb565b8060005b85811015610742578484038952815161072385826106bc565b945061072e836109fc565b925060208a0199505060018101905061070a565b50829750879550505050505092915050565b600061075f826109f1565b6107698185610a3c565b9350610779818560208601610ab6565b80840191505092915050565b6000610790826109e6565b61079a8185610a1a565b93506107aa818560208601610ab6565b6107b381610ae9565b840191505092915050565b60006107c9826109e6565b6107d38185610a2b565b93506107e3818560208601610ab6565b6107ec81610ae9565b840191505092915050565b6000610804603583610a2b565b91507f4861736820766973697461204f70657261746f72652073616e69746172696f2060008301527f636f7272657474616d656e74652073616c7661746f00000000000000000000006020830152604082019050919050565b600061086a601183610a2b565b91507f48617368206e6f6e20636f72726574746f0000000000000000000000000000006000830152602082019050919050565b60006108a98284610754565b915081905092915050565b60006040820190506108c960008301846106d0565b81810360208301526108da816107f7565b905092915050565b600060208201905081810360008301526108fc81846106df565b905092915050565b6000602082019050818103600083015261091e81846107be565b905092915050565b6000602082019050818103600083015261093f8161085d565b9050919050565b6000604051905081810181811067ffffffffffffffff8211171561096957600080fd5b8060405250919050565b600067ffffffffffffffff82111561098a57600080fd5b601f19601f8301169050602081019050919050565b600067ffffffffffffffff8211156109b657600080fd5b601f19601f8301169050602081019050919050565b6000819050602082019050919050565b600081519050919050565b600081519050919050565b600081519050919050565b6000602082019050919050565b600082825260208201905092915050565b600082825260208201905092915050565b600082825260208201905092915050565b600081905092915050565b600073ffffffffffffffffffffffffffffffffffffffff82169050919050565b6000819050919050565b6000610a7c82610a83565b9050919050565b6000610a8e82610a95565b9050919050565b6000610aa082610a47565b9050919050565b82818337600083830152505050565b60005b83811015610ad4578082015181840152602081019050610ab9565b83811115610ae3576000848401525b50505050565b6000601f19601f8301169050919050565b610b0381610a67565b8114610b0e57600080fd5b5056fea2646970667358221220a6eb04e9335f3e31cb43845b19c4f0b0f0a346060de9ef2a448dff6321bbd5c364736f6c63430006000033",
  "source": "pragma solidity ^0.6.0;\npragma experimental ABIEncoderV2;\n\ncontract OSContract {\n\n    mapping(string => mapping(string => string[])) public visita;\n    event Evento(address msg, string message);\n\n        // Funzione per memorizzare un hash nella mappatura\n    function storeHashVisita(string memory _codiceFiscaleMedico, string memory _codiceFiscalePaziente, string memory _hashDati) public {\n        require(bytes(_hashDati).length == 32, \"Hash non corretto\");\n        visita[_codiceFiscaleMedico][_codiceFiscalePaziente].push(_hashDati);\n        emit Evento(msg.sender,\"Hash visita Operatore sanitario correttamente salvato\");\n    }\n\n    // Funzione per recuperare l'array di visite per una specifica coppia di codici fiscali medico e paziente\n    function retrieveHashVisita(string memory _codiceFiscaleOS, string memory _codiceFiscalePaziente) public view returns (string[] memory) {\n        return visita[_codiceFiscaleOS][_codiceFiscalePaziente];\n    }\n    \n}\n",
  "sourcePath": "/Users/lauraferretti/Documents/SoftwareSecurity-Blockchain/solidityContracts/OSContract.sol",
  "compiler": {
    "name": "solc",
    "version": "0.6.0+commit.26b70077.Emscripten.clang"
  },
  "schemaVersion": "3.4.16",
  "updatedAt": "2024-04-23T14:58:53.609Z",
  "networkType": "ethereum",
  "devdoc": {
    "methods": {}
  },
  "userdoc": {
    "methods": {}
  }
}