{
  "contractName": "PazienteContract",
  "abi": [
    {
      "anonymous": false,
      "inputs": [
        {
          "indexed": false,
          "internalType": "address",
          "name": "msg",
          "type": "address"
        },
        {
          "indexed": false,
          "internalType": "string",
          "name": "message",
          "type": "string"
        }
      ],
      "name": "Evento",
      "type": "event"
    },
    {
      "inputs": [
        {
          "internalType": "string",
          "name": "",
          "type": "string"
        }
      ],
      "name": "cartellaClinica",
      "outputs": [
        {
          "internalType": "string",
          "name": "",
          "type": "string"
        }
      ],
      "stateMutability": "view",
      "type": "function",
      "constant": true
    },
    {
      "inputs": [
        {
          "internalType": "string",
          "name": "",
          "type": "string"
        },
        {
          "internalType": "uint256",
          "name": "",
          "type": "uint256"
        }
      ],
      "name": "farmaco",
      "outputs": [
        {
          "internalType": "string",
          "name": "",
          "type": "string"
        }
      ],
      "stateMutability": "view",
      "type": "function",
      "constant": true
    },
    {
      "inputs": [
        {
          "internalType": "string",
          "name": "",
          "type": "string"
        },
        {
          "internalType": "string",
          "name": "",
          "type": "string"
        },
        {
          "internalType": "uint256",
          "name": "",
          "type": "uint256"
        }
      ],
      "name": "visita",
      "outputs": [
        {
          "internalType": "string",
          "name": "",
          "type": "string"
        }
      ],
      "stateMutability": "view",
      "type": "function",
      "constant": true
    },
    {
      "inputs": [
        {
          "internalType": "string",
          "name": "_codiceFiscaleMedico",
          "type": "string"
        },
        {
          "internalType": "string",
          "name": "_codiceFiscalePaziente",
          "type": "string"
        },
        {
          "internalType": "string",
          "name": "_hashDati",
          "type": "string"
        }
      ],
      "name": "storeHashVisita",
      "outputs": [],
      "stateMutability": "nonpayable",
      "type": "function"
    },
    {
      "inputs": [
        {
          "internalType": "string",
          "name": "_codiceFiscalePaziente",
          "type": "string"
        },
        {
          "internalType": "string",
          "name": "_hashDati",
          "type": "string"
        }
      ],
      "name": "storeHashCartellaClinica",
      "outputs": [],
      "stateMutability": "nonpayable",
      "type": "function"
    },
    {
      "inputs": [
        {
          "internalType": "string",
          "name": "_codiceFiscalePaziente",
          "type": "string"
        }
      ],
      "name": "retrieveHashCartellaClinica",
      "outputs": [
        {
          "internalType": "string",
          "name": "",
          "type": "string"
        }
      ],
      "stateMutability": "view",
      "type": "function",
      "constant": true
    },
    {
      "inputs": [
        {
          "internalType": "string",
          "name": "_codiceFiscaleMedico",
          "type": "string"
        },
        {
          "internalType": "string",
          "name": "_codiceFiscalePaziente",
          "type": "string"
        }
      ],
      "name": "retrieveHashVisita",
      "outputs": [
        {
          "internalType": "string[]",
          "name": "",
          "type": "string[]"
        }
      ],
      "stateMutability": "view",
      "type": "function",
      "constant": true
    },
    {
      "inputs": [
        {
          "internalType": "string",
          "name": "_codiceFiscalePaziente",
          "type": "string"
        },
        {
          "internalType": "string",
          "name": "_hashDati",
          "type": "string"
        }
      ],
      "name": "storeHashFarmaco",
      "outputs": [],
      "stateMutability": "nonpayable",
      "type": "function"
    },
    {
      "inputs": [
        {
          "internalType": "string",
          "name": "_codiceFiscalePaziente",
          "type": "string"
        }
      ],
      "name": "retrieveHashFarmaco",
      "outputs": [
        {
          "internalType": "string[]",
          "name": "",
          "type": "string[]"
        }
      ],
      "stateMutability": "view",
      "type": "function",
      "constant": true
    }
  ],
  "bytecode": "0x608060405234801561001057600080fd5b506113b6806100206000396000f3fe608060405234801561001057600080fd5b50600436106100925760003560e01c80631aeb62f2116100665780631aeb62f21461014357806329a7d7521461015f57806334f684471461017b57806368ec4939146101ab5780638dee3d10146101db57610092565b806296c47e146100975780631108fcd7146100c757806311df4560146100f757806319cf9b4414610113575b600080fd5b6100b160048036036100ac9190810190610bf8565b61020b565b6040516100be919061112f565b60405180910390f35b6100e160048036036100dc9190810190610bb7565b61032f565b6040516100ee919061112f565b60405180910390f35b610111600480360361010c9190810190610c64565b610436565b005b61012d60048036036101289190810190610d7a565b61052a565b60405161013a9190611151565b60405180910390f35b61015d60048036036101589190810190610bf8565b610606565b005b61017960048036036101749190810190610bf8565b6106dd565b005b61019560048036036101909190810190610b76565b61078f565b6040516101a29190611151565b60405180910390f35b6101c560048036036101c09190810190610bb7565b610855565b6040516101d29190611173565b60405180910390f35b6101f560048036036101f09190810190610cfb565b610915565b6040516102029190611151565b60405180910390f35b606060018360405161021d919061108e565b908152602001604051809103902082604051610239919061108e565b9081526020016040518091039020805480602002602001604051908101604052809291908181526020016000905b82821015610323578382906000526020600020018054600181600116156101000203166002900480601f01602080910402602001604051908101604052809291908181526020018280546001816001161561010002031660029004801561030f5780601f106102e45761010080835404028352916020019161030f565b820191906000526020600020905b8154815290600101906020018083116102f257829003601f168201915b505050505081526020019060010190610267565b50505050905092915050565b6060600282604051610341919061108e565b9081526020016040518091039020805480602002602001604051908101604052809291908181526020016000905b8282101561042b578382906000526020600020018054600181600116156101000203166002900480601f0160208091040260200160405190810160405280929190818152602001828054600181600116156101000203166002900480156104175780601f106103ec57610100808354040283529160200191610417565b820191906000526020600020905b8154815290600101906020018083116103fa57829003601f168201915b50505050508152602001906001019061036f565b505050509050919050565b602081511461047a576040517f08c379a000000000000000000000000000000000000000000000000000000000815260040161047190611195565b60405180910390fd5b60018360405161048a919061108e565b9081526020016040518091039020826040516104a6919061108e565b9081526020016040518091039020819080600181540180825580915050600190039060005260206000200160009091909190915090805190602001906104ed929190610a14565b507f7125852639425aa27091c0670671d5a006e05057bf68a1d1d43e8851bc8897233360405161051d91906110d3565b60405180910390a1505050565b600282805160208101820180518482526020830160208501208183528095505050505050818154811061055957fe5b90600052602060002001600091509150508054600181600116156101000203166002900480601f0160208091040260200160405190810160405280929190818152602001828054600181600116156101000203166002900480156105fe5780601f106105d3576101008083540402835291602001916105fe565b820191906000526020600020905b8154815290600101906020018083116105e157829003601f168201915b505050505081565b602081511461064a576040517f08c379a000000000000000000000000000000000000000000000000000000000815260040161064190611195565b60405180910390fd5b60028260405161065a919061108e565b9081526020016040518091039020819080600181540180825580915050600190039060005260206000200160009091909190915090805190602001906106a1929190610a14565b507f7125852639425aa27091c0670671d5a006e05057bf68a1d1d43e8851bc889723336040516106d19190611101565b60405180910390a15050565b6020815114610721576040517f08c379a000000000000000000000000000000000000000000000000000000000815260040161071890611195565b60405180910390fd5b80600083604051610732919061108e565b90815260200160405180910390209080519060200190610753929190610a14565b507f7125852639425aa27091c0670671d5a006e05057bf68a1d1d43e8851bc8897233360405161078391906110a5565b60405180910390a15050565b6000818051602081018201805184825260208301602085012081835280955050505050506000915090508054600181600116156101000203166002900480601f01602080910402602001604051908101604052809291908181526020018280546001816001161561010002031660029004801561084d5780601f106108225761010080835404028352916020019161084d565b820191906000526020600020905b81548152906001019060200180831161083057829003601f168201915b505050505081565b6060600082604051610867919061108e565b90815260200160405180910390208054600181600116156101000203166002900480601f0160208091040260200160405190810160405280929190818152602001828054600181600116156101000203166002900480156109095780601f106108de57610100808354040283529160200191610909565b820191906000526020600020905b8154815290600101906020018083116108ec57829003601f168201915b50505050509050919050565b60018380516020810182018051848252602083016020850120818352809550505050505082805160208101820180518482526020830160208501208183528095505050505050818154811061096657fe5b9060005260206000200160009250925050508054600181600116156101000203166002900480601f016020809104026020016040519081016040528092919081815260200182805460018160011615610100020316600290048015610a0c5780601f106109e157610100808354040283529160200191610a0c565b820191906000526020600020905b8154815290600101906020018083116109ef57829003601f168201915b505050505081565b828054600181600116156101000203166002900490600052602060002090601f016020900481019282601f10610a5557805160ff1916838001178555610a83565b82800160010185558215610a83579182015b82811115610a82578251825591602001919060010190610a67565b5b509050610a909190610a94565b5090565b610ab691905b80821115610ab2576000816000905550600101610a9a565b5090565b90565b600082601f830112610aca57600080fd5b8135610add610ad8826111e2565b6111b5565b91508082526020830160208301858383011115610af957600080fd5b610b04838284611316565b50505092915050565b600082601f830112610b1e57600080fd5b8135610b31610b2c8261120e565b6111b5565b91508082526020830160208301858383011115610b4d57600080fd5b610b58838284611316565b50505092915050565b600081359050610b7081611369565b92915050565b600060208284031215610b8857600080fd5b600082013567ffffffffffffffff811115610ba257600080fd5b610bae84828501610ab9565b91505092915050565b600060208284031215610bc957600080fd5b600082013567ffffffffffffffff811115610be357600080fd5b610bef84828501610b0d565b91505092915050565b60008060408385031215610c0b57600080fd5b600083013567ffffffffffffffff811115610c2557600080fd5b610c3185828601610b0d565b925050602083013567ffffffffffffffff811115610c4e57600080fd5b610c5a85828601610b0d565b9150509250929050565b600080600060608486031215610c7957600080fd5b600084013567ffffffffffffffff811115610c9357600080fd5b610c9f86828701610b0d565b935050602084013567ffffffffffffffff811115610cbc57600080fd5b610cc886828701610b0d565b925050604084013567ffffffffffffffff811115610ce557600080fd5b610cf186828701610b0d565b9150509250925092565b600080600060608486031215610d1057600080fd5b600084013567ffffffffffffffff811115610d2a57600080fd5b610d3686828701610ab9565b935050602084013567ffffffffffffffff811115610d5357600080fd5b610d5f86828701610ab9565b9250506040610d7086828701610b61565b9150509250925092565b60008060408385031215610d8d57600080fd5b600083013567ffffffffffffffff811115610da757600080fd5b610db385828601610ab9565b9250506020610dc485828601610b61565b9150509250929050565b6000610dda8383610ed0565b905092915050565b610deb816112e0565b82525050565b6000610dfc8261124a565b610e068185611278565b935083602082028501610e188561123a565b8060005b85811015610e545784840389528151610e358582610dce565b9450610e408361126b565b925060208a01995050600181019050610e1c565b50829750879550505050505092915050565b6000610e7182611260565b610e7b818561129a565b9350610e8b818560208601611325565b610e9481611358565b840191505092915050565b6000610eaa82611260565b610eb481856112ab565b9350610ec4818560208601611325565b80840191505092915050565b6000610edb82611255565b610ee58185611289565b9350610ef5818560208601611325565b610efe81611358565b840191505092915050565b6000610f1482611255565b610f1e818561129a565b9350610f2e818560208601611325565b610f3781611358565b840191505092915050565b6000610f4f602f8361129a565b91507f486173682063617274656c6c6120636c696e69636120636f7272657474616d6560008301527f6e7465206d656d6f72697a7a61746100000000000000000000000000000000006020830152604082019050919050565b6000610fb5601a8361129a565b91507f4861736820636f7272657474616d656e74652073616c7661746f0000000000006000830152602082019050919050565b6000610ff560268361129a565b91507f48617368206661726d61636f20636f7272657474616d656e7465206d656d6f7260008301527f697a7a61746f00000000000000000000000000000000000000000000000000006020830152604082019050919050565b600061105b60118361129a565b91507f48617368206e6f6e20636f72726574746f0000000000000000000000000000006000830152602082019050919050565b600061109a8284610e9f565b915081905092915050565b60006040820190506110ba6000830184610de2565b81810360208301526110cb81610f42565b905092915050565b60006040820190506110e86000830184610de2565b81810360208301526110f981610fa8565b905092915050565b60006040820190506111166000830184610de2565b818103602083015261112781610fe8565b905092915050565b600060208201905081810360008301526111498184610df1565b905092915050565b6000602082019050818103600083015261116b8184610f09565b905092915050565b6000602082019050818103600083015261118d8184610e66565b905092915050565b600060208201905081810360008301526111ae8161104e565b9050919050565b6000604051905081810181811067ffffffffffffffff821117156111d857600080fd5b8060405250919050565b600067ffffffffffffffff8211156111f957600080fd5b601f19601f8301169050602081019050919050565b600067ffffffffffffffff82111561122557600080fd5b601f19601f8301169050602081019050919050565b6000819050602082019050919050565b600081519050919050565b600081519050919050565b600081519050919050565b6000602082019050919050565b600082825260208201905092915050565b600082825260208201905092915050565b600082825260208201905092915050565b600081905092915050565b600073ffffffffffffffffffffffffffffffffffffffff82169050919050565b6000819050919050565b60006112eb826112f2565b9050919050565b60006112fd82611304565b9050919050565b600061130f826112b6565b9050919050565b82818337600083830152505050565b60005b83811015611343578082015181840152602081019050611328565b83811115611352576000848401525b50505050565b6000601f19601f8301169050919050565b611372816112d6565b811461137d57600080fd5b5056fea2646970667358221220d14c9fbb2bdecaa4423500625af51e8b403348d7f6e85421a445ad0f91e8b0f964736f6c63430006000033",
  "source": "pragma solidity ^0.6.0;\npragma experimental ABIEncoderV2;\n\ncontract PazienteContract {\n\n    mapping(string => string) public cartellaClinica;\n    mapping(string => mapping(string => string[])) public visita;\n    mapping(string => string[]) public farmaco;\n    event Evento(address msg, string message);\n\n    // Funzione per memorizzare un hash nella mappatura\n    function storeHashVisita(string memory _codiceFiscaleMedico, string memory _codiceFiscalePaziente, string memory _hashDati) public {\n        require(bytes(_hashDati).length == 32, \"Hash non corretto\");\n        visita[_codiceFiscaleMedico][_codiceFiscalePaziente].push(_hashDati);\n        emit Evento(msg.sender,\"Hash correttamente salvato\");\n    }\n\n    // Funzione per memorizzare un hash nella mappatura\n    function storeHashCartellaClinica(string memory _codiceFiscalePaziente, string memory _hashDati) public {\n        require(bytes(_hashDati).length == 32, \"Hash non corretto\");\n        cartellaClinica[_codiceFiscalePaziente] = _hashDati;\n        emit Evento(msg.sender,\"Hash cartella clinica correttamente memorizzata\");\n    }\n\n    // Funzione per recuperare l'hash per un determinato codice fiscale del paziente\n    function retrieveHashCartellaClinica(string memory _codiceFiscalePaziente) public view returns (string memory) {\n        return cartellaClinica[_codiceFiscalePaziente];\n    }\n\n    // Funzione per recuperare l'array di visite per una specifica coppia di codici fiscali medico e paziente\n    function retrieveHashVisita(string memory _codiceFiscaleMedico, string memory _codiceFiscalePaziente) public view returns (string[] memory) {\n        return visita[_codiceFiscaleMedico][_codiceFiscalePaziente];\n    }\n\n    // Funzione per memorizzare un farmaco nella mappatura\n    function storeHashFarmaco(string memory _codiceFiscalePaziente, string memory _hashDati) public {\n        require(bytes(_hashDati).length == 32, \"Hash non corretto\");\n        farmaco[_codiceFiscalePaziente].push(_hashDati);\n        emit Evento(msg.sender,\"Hash farmaco correttamente memorizzato\");\n    }\n\n    // Funzione per recuperare un farmaco\n    function retrieveHashFarmaco(string memory _codiceFiscalePaziente) public view returns (string[] memory) {\n        return farmaco[_codiceFiscalePaziente];\n    }\n    \n}\n",
  "sourcePath": "/Users/lauraferretti/Documents/SoftwareSecurity-Blockchain/solidityContracts/PazienteContract.sol",
  "compiler": {
    "name": "solc",
    "version": "0.6.0+commit.26b70077.Emscripten.clang"
  },
  "schemaVersion": "3.4.16",
  "updatedAt": "2024-04-23T14:58:53.471Z",
  "networkType": "ethereum",
  "devdoc": {
    "methods": {}
  },
  "userdoc": {
    "methods": {}
  }
}