{
  "contractName": "PazienteContract",
  "abi": [
    {
      "inputs": [
        {
          "internalType": "string",
          "name": "",
          "type": "string"
        }
      ],
      "name": "cartellaClinica",
      "outputs": [
        {
          "internalType": "string",
          "name": "",
          "type": "string"
        }
      ],
      "stateMutability": "view",
      "type": "function",
      "constant": true
    },
    {
      "inputs": [
        {
          "internalType": "string",
          "name": "",
          "type": "string"
        },
        {
          "internalType": "uint256",
          "name": "",
          "type": "uint256"
        }
      ],
      "name": "farmaco",
      "outputs": [
        {
          "internalType": "string",
          "name": "",
          "type": "string"
        }
      ],
      "stateMutability": "view",
      "type": "function",
      "constant": true
    },
    {
      "inputs": [
        {
          "internalType": "string",
          "name": "",
          "type": "string"
        },
        {
          "internalType": "string",
          "name": "",
          "type": "string"
        },
        {
          "internalType": "uint256",
          "name": "",
          "type": "uint256"
        }
      ],
      "name": "visita",
      "outputs": [
        {
          "internalType": "string",
          "name": "",
          "type": "string"
        }
      ],
      "stateMutability": "view",
      "type": "function",
      "constant": true
    },
    {
      "inputs": [
        {
          "internalType": "string",
          "name": "_codiceFiscaleMedico",
          "type": "string"
        },
        {
          "internalType": "string",
          "name": "_codiceFiscalePaziente",
          "type": "string"
        },
        {
          "internalType": "string",
          "name": "_hashDati",
          "type": "string"
        }
      ],
      "name": "storeHashVisita",
      "outputs": [],
      "stateMutability": "nonpayable",
      "type": "function"
    },
    {
      "inputs": [
        {
          "internalType": "string",
          "name": "_codiceFiscalePaziente",
          "type": "string"
        },
        {
          "internalType": "string",
          "name": "_hashDati",
          "type": "string"
        }
      ],
      "name": "storeHashCartellaClinica",
      "outputs": [],
      "stateMutability": "nonpayable",
      "type": "function"
    },
    {
      "inputs": [
        {
          "internalType": "string",
          "name": "_codiceFiscalePaziente",
          "type": "string"
        }
      ],
      "name": "retrieveHashCartellaClinica",
      "outputs": [
        {
          "internalType": "string",
          "name": "",
          "type": "string"
        }
      ],
      "stateMutability": "view",
      "type": "function",
      "constant": true
    },
    {
      "inputs": [
        {
          "internalType": "string",
          "name": "_codiceFiscaleMedico",
          "type": "string"
        },
        {
          "internalType": "string",
          "name": "_codiceFiscalePaziente",
          "type": "string"
        }
      ],
      "name": "retrieveHashVisita",
      "outputs": [
        {
          "internalType": "string[]",
          "name": "",
          "type": "string[]"
        }
      ],
      "stateMutability": "view",
      "type": "function",
      "constant": true
    },
    {
      "inputs": [
        {
          "internalType": "string",
          "name": "_codiceFiscalePaziente",
          "type": "string"
        },
        {
          "internalType": "string",
          "name": "_hashDati",
          "type": "string"
        }
      ],
      "name": "storeHashFarmaco",
      "outputs": [],
      "stateMutability": "nonpayable",
      "type": "function"
    },
    {
      "inputs": [
        {
          "internalType": "string",
          "name": "_codiceFiscalePaziente",
          "type": "string"
        }
      ],
      "name": "retrieveHashFarmaco",
      "outputs": [
        {
          "internalType": "string[]",
          "name": "",
          "type": "string[]"
        }
      ],
      "stateMutability": "view",
      "type": "function",
      "constant": true
    }
  ],
  "bytecode": "0x608060405234801561001057600080fd5b50610fea806100206000396000f3fe608060405234801561001057600080fd5b50600436106100925760003560e01c80631aeb62f2116100665780631aeb62f21461014357806329a7d7521461015f57806334f684471461017b57806368ec4939146101ab5780638dee3d10146101db57610092565b806296c47e146100975780631108fcd7146100c757806311df4560146100f757806319cf9b4414610113575b600080fd5b6100b160048036036100ac9190810190610a87565b61020b565b6040516100be9190610dd9565b60405180910390f35b6100e160048036036100dc9190810190610a46565b61032f565b6040516100ee9190610dd9565b60405180910390f35b610111600480360361010c9190810190610af3565b610436565b005b61012d60048036036101289190810190610c09565b6104af565b60405161013a9190610dfb565b60405180910390f35b61015d60048036036101589190810190610a87565b61058b565b005b61017960048036036101749190810190610a87565b6105e7565b005b61019560048036036101909190810190610a05565b61061e565b6040516101a29190610dfb565b60405180910390f35b6101c560048036036101c09190810190610a46565b6106e4565b6040516101d29190610e1d565b60405180910390f35b6101f560048036036101f09190810190610b8a565b6107a4565b6040516102029190610dfb565b60405180910390f35b606060018360405161021d9190610dc2565b9081526020016040518091039020826040516102399190610dc2565b9081526020016040518091039020805480602002602001604051908101604052809291908181526020016000905b82821015610323578382906000526020600020018054600181600116156101000203166002900480601f01602080910402602001604051908101604052809291908181526020018280546001816001161561010002031660029004801561030f5780601f106102e45761010080835404028352916020019161030f565b820191906000526020600020905b8154815290600101906020018083116102f257829003601f168201915b505050505081526020019060010190610267565b50505050905092915050565b60606002826040516103419190610dc2565b9081526020016040518091039020805480602002602001604051908101604052809291908181526020016000905b8282101561042b578382906000526020600020018054600181600116156101000203166002900480601f0160208091040260200160405190810160405280929190818152602001828054600181600116156101000203166002900480156104175780601f106103ec57610100808354040283529160200191610417565b820191906000526020600020905b8154815290600101906020018083116103fa57829003601f168201915b50505050508152602001906001019061036f565b505050509050919050565b6001836040516104469190610dc2565b9081526020016040518091039020826040516104629190610dc2565b9081526020016040518091039020819080600181540180825580915050600190039060005260206000200160009091909190915090805190602001906104a99291906108a3565b50505050565b60028280516020810182018051848252602083016020850120818352809550505050505081815481106104de57fe5b90600052602060002001600091509150508054600181600116156101000203166002900480601f0160208091040260200160405190810160405280929190818152602001828054600181600116156101000203166002900480156105835780601f1061055857610100808354040283529160200191610583565b820191906000526020600020905b81548152906001019060200180831161056657829003601f168201915b505050505081565b60028260405161059b9190610dc2565b9081526020016040518091039020819080600181540180825580915050600190039060005260206000200160009091909190915090805190602001906105e29291906108a3565b505050565b806000836040516105f89190610dc2565b908152602001604051809103902090805190602001906106199291906108a3565b505050565b6000818051602081018201805184825260208301602085012081835280955050505050506000915090508054600181600116156101000203166002900480601f0160208091040260200160405190810160405280929190818152602001828054600181600116156101000203166002900480156106dc5780601f106106b1576101008083540402835291602001916106dc565b820191906000526020600020905b8154815290600101906020018083116106bf57829003601f168201915b505050505081565b60606000826040516106f69190610dc2565b90815260200160405180910390208054600181600116156101000203166002900480601f0160208091040260200160405190810160405280929190818152602001828054600181600116156101000203166002900480156107985780601f1061076d57610100808354040283529160200191610798565b820191906000526020600020905b81548152906001019060200180831161077b57829003601f168201915b50505050509050919050565b6001838051602081018201805184825260208301602085012081835280955050505050508280516020810182018051848252602083016020850120818352809550505050505081815481106107f557fe5b9060005260206000200160009250925050508054600181600116156101000203166002900480601f01602080910402602001604051908101604052809291908181526020018280546001816001161561010002031660029004801561089b5780601f106108705761010080835404028352916020019161089b565b820191906000526020600020905b81548152906001019060200180831161087e57829003601f168201915b505050505081565b828054600181600116156101000203166002900490600052602060002090601f016020900481019282601f106108e457805160ff1916838001178555610912565b82800160010185558215610912579182015b828111156109115782518255916020019190600101906108f6565b5b50905061091f9190610923565b5090565b61094591905b80821115610941576000816000905550600101610929565b5090565b90565b600082601f83011261095957600080fd5b813561096c61096782610e6c565b610e3f565b9150808252602083016020830185838301111561098857600080fd5b610993838284610f4a565b50505092915050565b600082601f8301126109ad57600080fd5b81356109c06109bb82610e98565b610e3f565b915080825260208301602083018583830111156109dc57600080fd5b6109e7838284610f4a565b50505092915050565b6000813590506109ff81610f9d565b92915050565b600060208284031215610a1757600080fd5b600082013567ffffffffffffffff811115610a3157600080fd5b610a3d84828501610948565b91505092915050565b600060208284031215610a5857600080fd5b600082013567ffffffffffffffff811115610a7257600080fd5b610a7e8482850161099c565b91505092915050565b60008060408385031215610a9a57600080fd5b600083013567ffffffffffffffff811115610ab457600080fd5b610ac08582860161099c565b925050602083013567ffffffffffffffff811115610add57600080fd5b610ae98582860161099c565b9150509250929050565b600080600060608486031215610b0857600080fd5b600084013567ffffffffffffffff811115610b2257600080fd5b610b2e8682870161099c565b935050602084013567ffffffffffffffff811115610b4b57600080fd5b610b578682870161099c565b925050604084013567ffffffffffffffff811115610b7457600080fd5b610b808682870161099c565b9150509250925092565b600080600060608486031215610b9f57600080fd5b600084013567ffffffffffffffff811115610bb957600080fd5b610bc586828701610948565b935050602084013567ffffffffffffffff811115610be257600080fd5b610bee86828701610948565b9250506040610bff868287016109f0565b9150509250925092565b60008060408385031215610c1c57600080fd5b600083013567ffffffffffffffff811115610c3657600080fd5b610c4285828601610948565b9250506020610c53858286016109f0565b9150509250929050565b6000610c698383610d50565b905092915050565b6000610c7c82610ed4565b610c868185610f02565b935083602082028501610c9885610ec4565b8060005b85811015610cd45784840389528151610cb58582610c5d565b9450610cc083610ef5565b925060208a01995050600181019050610c9c565b50829750879550505050505092915050565b6000610cf182610eea565b610cfb8185610f24565b9350610d0b818560208601610f59565b610d1481610f8c565b840191505092915050565b6000610d2a82610eea565b610d348185610f35565b9350610d44818560208601610f59565b80840191505092915050565b6000610d5b82610edf565b610d658185610f13565b9350610d75818560208601610f59565b610d7e81610f8c565b840191505092915050565b6000610d9482610edf565b610d9e8185610f24565b9350610dae818560208601610f59565b610db781610f8c565b840191505092915050565b6000610dce8284610d1f565b915081905092915050565b60006020820190508181036000830152610df38184610c71565b905092915050565b60006020820190508181036000830152610e158184610d89565b905092915050565b60006020820190508181036000830152610e378184610ce6565b905092915050565b6000604051905081810181811067ffffffffffffffff82111715610e6257600080fd5b8060405250919050565b600067ffffffffffffffff821115610e8357600080fd5b601f19601f8301169050602081019050919050565b600067ffffffffffffffff821115610eaf57600080fd5b601f19601f8301169050602081019050919050565b6000819050602082019050919050565b600081519050919050565b600081519050919050565b600081519050919050565b6000602082019050919050565b600082825260208201905092915050565b600082825260208201905092915050565b600082825260208201905092915050565b600081905092915050565b6000819050919050565b82818337600083830152505050565b60005b83811015610f77578082015181840152602081019050610f5c565b83811115610f86576000848401525b50505050565b6000601f19601f8301169050919050565b610fa681610f40565b8114610fb157600080fd5b5056fea2646970667358221220df63e744b68e3a8db148367e16ac5fe6e3fa51bf62e4f507a920f0982088cdb764736f6c63430006000033",
  "source": "pragma solidity ^0.6.0;\npragma experimental ABIEncoderV2;\n\ncontract PazienteContract {\n\n    mapping(string => string) public cartellaClinica;\n    mapping(string => mapping(string => string[])) public visita;\n    mapping(string => string[]) public farmaco;\n\n\n    // Funzione per memorizzare un hash nella mappatura\n    function storeHashVisita(string memory _codiceFiscaleMedico, string memory _codiceFiscalePaziente, string memory _hashDati) public {\n        visita[_codiceFiscaleMedico][_codiceFiscalePaziente].push(_hashDati);\n    }\n\n    // Funzione per memorizzare un hash nella mappatura\n    function storeHashCartellaClinica(string memory _codiceFiscalePaziente, string memory _hashDati) public {\n        cartellaClinica[_codiceFiscalePaziente] = _hashDati;\n    }\n\n    // Funzione per recuperare l'hash per un determinato codice fiscale del paziente\n    function retrieveHashCartellaClinica(string memory _codiceFiscalePaziente) public view returns (string memory) {\n        return cartellaClinica[_codiceFiscalePaziente];\n    }\n\n    // Funzione per recuperare l'array di visite per una specifica coppia di codici fiscali medico e paziente\n    function retrieveHashVisita(string memory _codiceFiscaleMedico, string memory _codiceFiscalePaziente) public view returns (string[] memory) {\n        return visita[_codiceFiscaleMedico][_codiceFiscalePaziente];\n    }\n\n    // Funzione per memorizzare un farmaco nella mappatura\n    function storeHashFarmaco(string memory _codiceFiscalePaziente, string memory _hashDati) public {\n        farmaco[_codiceFiscalePaziente].push(_hashDati);\n    }\n\n    // Funzione per recuperare un farmaco\n    function retrieveHashFarmaco(string memory _codiceFiscalePaziente) public view returns (string[] memory) {\n        return farmaco[_codiceFiscalePaziente];\n    }\n    \n}\n",
  "sourcePath": "/Users/lauraferretti/Desktop/SoftwareSecurity-Blockchain/solidityContracts/PazienteContract.sol",
  "compiler": {
    "name": "solc",
    "version": "0.6.0+commit.26b70077.Emscripten.clang"
  },
  "schemaVersion": "3.4.16",
  "updatedAt": "2024-04-13T15:40:59.655Z",
  "networkType": "ethereum",
  "devdoc": {
    "methods": {}
  },
  "userdoc": {
    "methods": {}
  }
}